:020000040800F2
:100000000004002047010008990200089B02000834
:100010009F020008A3020008A702000800000000D9
:10002000000000000000000000000000AB0200081B
:10003000AD02000800000000AF020008B102000895
:1000400067010008670100086701000867010008F0
:1000500067010008670100086701000867010008E0
:1000600067010008670100086701000867010008D0
:1000700067010008670100086701000867010008C0
:1000800067010008670100086701000867010008B0
:10009000F303000867010008670100086701000812
:1000A0006701000867010008670100086701000890
:1000B0006701000867010008670100086701000880
:1000C0006701000867010008670100086701000870
:1000D0006701000867010008670100086701000860
:1000E0006701000867010008670100086701000850
:1000F0006701000867010008670100086701000840
:10010000670100086701000867010008670100082F
:10011000670100086701000867010008670100081F
:10012000670100086701000867010008670100080F
:10013000DFF80CD001F0F6F9004800476B02000828
:1001400018020020704708488047084981F3088852
:1001500007480047FEE7FEE7FEE7FEE7FEE7FEE7AB
:10016000FEE7FEE7FEE7FEE7450100081802002073
:100170003101000801B502E00098401E009000988F
:100180000028F9D108BD08B50121042000F090FC39
:100190000121082000F08CFC4FF44050ADF8000025
:1001A00001208DF8020048208DF803006946374889
:1001B00000F0E2F94FF48070ADF8000001208DF8F6
:1001C000020048208DF803006946314800F0D4F958
:1001D00008BD10B54FF400512C4800F060FAF0B99A
:1001E0002C48FFF7C7FF4FF40051284800F057FA9A
:1001F000A8B900BF4FF40051244800F050FA00287D
:10020000F8D07721552000F0DAF84FF400411F486C
:1002100000F05FFA4FF480411C4800F05AFA4FF4A6
:1002200080511A4800F03BFAF0B91A48FFF7A2FFD4
:100230004FF48051154800F032FAA8B900BF4FF4CE
:100240008051124800F02BFA0028F8D0BB219920E9
:1002500000F0B5F84FF400410C4800F03AFA4FF4C2
:1002600080410A4800F035FA10BD01F031F9FFF77E
:100270008AFF00F0FDF800F036F800F01BF800F0FF
:1002800057F801E0FFF7A5FFFCE70000000C014074
:100290000008014040420F00704700BFFEE700BF6A
:1002A000FEE700BFFEE700BFFEE7704770477047FC
:1002B0007047000008B54FF4E06001F029F8002114
:1002C0004FF0006001F05BF814208DF80000002072
:1002D0008DF801008DF8020001208DF803006846BA
:1002E00001F01BF808BD08B50121092000F0E0FB72
:1002F0000121480600F0E9FB4FF48070ADF80000E2
:1003000048208DF803006946574800F035F94FF44E
:100310000070ADF8000018208DF8030069465248BF
:1003200000F02AF901214FF4EA1000F0F6F908BDB7
:1003300000B587B04D4800F01FFC04A800F03BFD5D
:1003400000208DF810008DF811008DF812008DF846
:1003500013008DF814008DF815008DF816008DF837
:10036000170002208DF8180001208DF819003C209C
:10037000ADF81A0004A93D4800F010FC01208DF8EA
:10038000000000208DF8010001208DF802000020FF
:10039000ADF80400ADF80600ADF80800ADF80A00AD
:1003A000ADF80C0001208DF80E00684600F082FCCC
:1003B000012202212D4800F00EFD07B000BD30B52E
:1003C00085B004460D4600200090019004208DF871
:1003D000080000208DF8090002208DF80A008DF831
:1003E0000B408DF80C506946204800F0FDFC05B02C
:1003F00030BD00B585B00020009001908DF8080058
:100400008DF80A008DF813008DF80B0000218DF88F
:100410000C106A46154800F0F4FD9DF80B00992871
:100420000DD19DF80C00BB2809D14FF400410E48B6
:1004300000F051F94FF480410B4800F04AF99DF863
:100440000B0055280DD19DF80C00772809D14FF4E9
:100450000041054800F03DF94FF48041024800F0AA
:100460003AF905B000BD0000000C014000640040F6
:1004700008B50121082000F01BFB4FF44040ADF807
:10048000000010208DF8030003208DF8020069465B
:10049000044800F071F84FF44041024800F019F9A7
:1004A00008BD0000000C014010B50446C649601AA2
:1004B0008C422FD009DCC548204480B1B0F5806F54
:1004C00016D0B0F5006F4AD11BE0B0F5806F2AD08E
:1004D000B0F5006F30D0B0F5406F40D135E001216C
:1004E000042000F0FFFA0021042000F0FBFA37E0BE
:1004F0000121082000F0F6FA0021082000F0F2FAAD
:100500002EE00121102000F0EDFA0021102000F073
:10051000E9FA25E00121202000F0E4FA0021202062
:1005200000F0E0FA1CE00121402000F0DBFA00219D
:10053000402000F0D7FA13E00121802000F0D2FA29
:100540000021802000F0CEFA0AE00121080200F02C
:10055000C9FA00214FF4807000F0C4FA00E000BF37
:1005600000BF10BD10B50121084600F0BBFA002104
:10057000012000F0B7FA10BD2DE9F0410246002538
:100580000026002000230024002791F803C00CF06F
:100590000F0591F803C00CF0100CBCF1000F03D054
:1005A00091F802C04CEA050591F800C0BCF1000FBB
:1005B00031D0146800202BE04FF0010C0CFA00F34E
:1005C000B1F800C00CEA03069E4220D183004FF030
:1005D0000F0C0CFA03F7BC4305FA03FC4CEA0404C5
:1005E00091F803C0BCF1280F06D14FF0010C0CFAB2
:1005F00000FCC2F814C00AE091F803C0BCF1480F37
:1006000005D14FF0010C0CFA00FCC2F810C0401CE0
:100610000828D1D31460B1F800C0BCF1FF0F34DD5D
:10062000546800202EE000F1080C4FF0010808FA91
:100630000CF3B1F800C00CEA03069E4221D18300FE
:100640004FF00F0C0CFA03F7BC4305FA03FC4CEA1D
:10065000040491F803C0BCF1280F05D100F1080C87
:1006600008FA0CF8C2F8148091F803C0BCF1480FE6
:1006700007D100F1080C4FF0010808FA0CF8C2F895
:100680001080401C0828CED35460BDE8F0814FF69E
:10069000FF710180022181700421C1707047024600
:1006A000002093680B400BB1012000E00020704750
:1006B0000146886880B2704702460020D3680B402C
:1006C0000BB1012000E0002070470146C86880B2ED
:1006D000704701617047416170470AB1016100E0F4
:1006E00041617047C16070474FF480320A438261B4
:1006F0008161826182698269704702460020344BC1
:1007000018684FF68073184040EA02100843304BD7
:10071000186070472F49C8617047F0B50A4600233A
:100720000024002100252A4E7168C0F3034583B2DE
:1007300000F44016B6F5401F08D121F07061244E38
:10074000766826F07066224F7E6012E000F4801614
:10075000B6F5801F06D1032606FA05F4A14341F041
:10076000706106E0460D360103FA06F6B14341F02A
:10077000706122B1460D360103FA06F63143144E7C
:100780007160F0BD30B500228B071C0F0F2303FAF8
:1007900004F20F4B08338C1053F8243093430C4C65
:1007A00008348D1044F8253023468C1053F824303B
:1007B0008C07240F00FA04F42343054C08348D10F1
:1007C00044F8253030BD00000014014000F8FEBFA1
:1007D0000000014000002042DE48006840F00100B7
:1007E000DC49086008464068DB490840D949486050
:1007F00008460068D9490840D6490860084600689C
:1008000020F4802008600846406820F4FE0048601C
:10081000002088607047CF49096821F48031CD4AB3
:1008200011601146096821F480211160B0F5803F04
:1008300003D0B0F5802F0ED106E0C649096841F417
:100840008031C44A116007E0C249096841F4A0211F
:10085000C04A116000E000BF00BF704710B50146FC
:100860000022002300204A11012A02D1B94C23683A
:1008700006E0022A02D1B74C236A01E0B54C636A54
:1008800001F01F02012494401C400CB1012000E043
:10089000002010BD38B5002000900024002500BFC6
:1008A0003120FFF7DBFF05460098401C00901DB982
:1008B0000098B0F5A06FF3D13120FFF7CFFF08B15A
:1008C000012400E00024204638BD01460020A14A52
:1008D000106820F0F80040EAC10010607047A0499D
:1008E00008607047024600209A4B586820F47C103C
:1008F00042EA01031843974B5860704798490866CD
:10090000704701460020934A506820F003000843D6
:10091000506070478F48406800F00C0070470146F7
:1009200000208C4A506820F0F00008435060704767
:1009300001460020874A506820F4E0600843506078
:10094000704701460020834A506820F4605040EA16
:10095000C1005060704729B17E4A527A02437D4BF4
:100960005A7204E07B4A527A82437A4B5A72704739
:100970007B49D8310860704701460020754A5068AD
:1009800020F440400843506070470021714A2032F3
:100990001170704A82F82010012802D004280AD170
:1009A00004E001216B4A2032117005E00521694AFB
:1009B0002032117000E000BF00BF70476949086035
:1009C00070476449096A0143624A11627047654988
:1009D00044390860704730B500210022002400230C
:1009E0005C4D6D6805F00C0121B1042905D0082982
:1009F00023D105E05C4D056022E05B4D05601FE002
:100A0000544D6D6805F47012022505EB9242514D6C
:100A10006D6805F480341CB9544D554305600BE0F6
:100A20004C4D6D6805F400351DB1504D55430560C2
:100A300002E04D4D5543056002E04B4D056000BF9F
:100A400000BF444D6D6805F0F0010909484D6B5C2D
:100A50000568DD4045603F4D6D6805F4E061090AB9
:100A6000434D6B5C4568DD4085603A4D6D6805F42B
:100A70006051C90A3E4D6B5C4568DD40C560354D2F
:100A80006D6805F44041890B3A4D6B5CC568B5FB58
:100A9000F3F5056130BD29B12E4A526902432D4B51
:100AA0005A6104E02B4A526982432A4B5A617047CB
:100AB00029B1284A92690243264B9A6104E0254AEB
:100AC00092698243234B9A61704729B1214AD269C6
:100AD0000243204BDA6104E01E4AD26982431D4B77
:100AE000DA61704729B11B4AD2680243194BDA60B8
:100AF00004E0184AD2688243164BDA60704729B185
:100B0000144A12690243134B1A6104E0114A126934
:100B10008243104B1A617047124940390860704790
:100B20000F49C86470470B49C87170470948406A4B
:100B300040F0807007494862704701460020054A2E
:100B400092680A400AB1012000E000207047014984
:100B500088727047001002400000FFF8FFFFF6FEA9
:100B6000000042428004424200127A0000093D0027
:100B7000000000201000002010B50446FE4820446C
:100B800048B901214806FFF7BAFF00214FF0007075
:100B9000FFF7B5FF00E000BF00BF10BD30B5024653
:100BA00000200023146824F002041460146844F048
:100BB0000104146000E05B1C4FF6FF74A34204D0F4
:100BC000546804F00104002CF5D0546804F00104CA
:100BD0000CB900206DE00C78012C04D1146844F0AD
:100BE0008004146003E0146824F0800414604C78DE
:100BF000012C04D1146844F04004146003E014682C
:100C000024F0400414608C78012C04D1146844F062
:100C10002004146003E0146824F020041460CC78ED
:100C2000012C04D1146844F01004146003E014682B
:100C300024F0100414600C79012C04D1146844F0E1
:100C40000804146003E0146824F0080414604C796C
:100C5000012C04D1146844F00404146003E0146807
:100C600024F0040414608C79A407CD7944EA056467
:100C70000D7A44EA05444D7A44EA05544D896D1EC7
:100C80002C43D461146824F001041460002300E0B4
:100C90005B1C4FF6FF74A34204D0546804F00104B7
:100CA000002CF5D1546804F001040CB1002000E0E0
:100CB000012030BD10B500210378012202FA03F1B2
:100CC000AE4A126842F00102AC4B1A60AB4A1C32C9
:100CD00012688A43A94B1C331A608278CAB9A74AA2
:100CE0000C3212688A43A54B0C331A60C2884389C0
:100CF00042EA0343A14A4032047842F83430828801
:100D0000038942EA03439D4A4032047802EBC4025D
:100D100053608278012A19D1984A0C3212680A432A
:100D2000964B0C331A60C288838842EA0343934A85
:100D30004032047842F834304289038942EA03435E
:100D40008E4A4032047802EBC402536042783AB9CA
:100D50008A4A121D12688A43884B1B1D1A6006E0DE
:100D6000864A121D12680A43844B1B1D1A60828931
:100D700032B9824A143212688A43804B14331A60A3
:100D80008289012A06D17D4A143212680A437B4BBC
:100D900014331A60827B012A06D1784A1C32126809
:100DA0000A43764B1C331A60744A126822F001021F
:100DB000724B1A6010BD0021017041708170C170CA
:100DC000017141718171C17103210172022141726E
:100DD0000121418170471AB143690B43436102E02D
:100DE00043698B434361704710B502460020936806
:100DF00003F08063B3F1806F00D110E0936803F0DB
:100E00000063B3F1006F01D1012008E0936803F0A3
:100E10008053B3F1805F01D1022000E00420042858
:100E200074D002F5C07303EB00131B6803F00104D8
:100E300002F5C07303EB00131C600B7A7BB94B7A8D
:100E40000C8843EA445302F5C07404EB0014246890
:100E5000234302F5C07404EB0014236010E00B7A06
:100E60004C6843EAC4034C7A234302F5C07404EB94
:100E700000142468234302F5C07404EB00142360BB
:100E80008B7A03F00F038B7202F5C07303EB001330
:100E90005B6823F00F0402F5C07303EB00135C6082
:100EA00002F5C07303EB00135B688C7A234302F5F1
:100EB000C07404EB001463608B7B1C064B7B44EA1C
:100EC00003440B7B44EA0323CC7A234302F5C0742A
:100ED00004EB0014A3608B7C1C064B7C44EA0344A7
:100EE0000B7C44EA0323CC7B234302F5C07404EB60
:100EF0000014E36002F5C07303EB00131B6843F0BA
:100F0000010402F5C07303EB00131C6010BD024620
:100F1000002021B1012910D0022931D11CE09368B1
:100F200003F0010340EA8300936803F002031843CF
:100F30009368C3F38063184324E0936803F48073D9
:100F400040EA9310936803F4007340EA1320936817
:100F5000C3F3C063184315E0936803F4803340EA99
:100F60009330936803F4003340EA13409368C3F36B
:100F70000073184306E00000009CFFBF00660040BD
:100F8000002000BF00BF20B1052804D0072806D1EB
:100F900003E0022005E0002003E0012001E0002042
:100FA00000BF00BF704721B1012907D002290FD12E
:100FB00009E0826842F0800282600AE0826842F4BE
:100FC0000042826005E0826842F40002826000E034
:100FD00000BF00BF704711B92022C26001E020228B
:100FE000026170470246002019B9D36803F003007C
:100FF00006E0012903D1136903F0030000E000209B
:10100000704730B505460C46134605F5D87000EB21
:101010000410006800F004001872187A50B905F541
:10102000D87000EB0410006840F2FF7101EA5050E4
:10103000186009E005F5D87000EB041000686FF047
:10104000604101EAD000586005F5D87000EB04104B
:10105000006800F00200587205F5D87000EB04102B
:10106000406800F00F00987205F5D87000EB04108E
:101070004068000AD87405F5D87000EB0410806849
:10108000D87205F5D87000EB04108068010A197356
:1010900005F5D87000EB04108068010C597305F554
:1010A000D87000EB04108068000E987305F5D870B6
:1010B00000EB0410C068D87305F5D87000EB04107D
:1010C000C068010A197405F5D87000EB0410C068F7
:1010D000010C597405F5D87000EB0410C068000EBF
:1010E000987421462846FFF776FF30BD21B102688B
:1010F00042F48032026003E0026822F4803202602F
:101100007047014600200A6822F0010242F0020204
:101110000A604A6802F00302022A00D101207047E7
:1011200001464FF6FF7200200B6823F002030B60AC
:1011300000E0521E4B6803F00203022B01D1002A8B
:10114000F7D14B6803F00203022B00D00120704757
:101150000246002093690B400BB1012000E0002003
:10116000704782698A43826170470246002002EA22
:1011700001030BB1012000E00020704770B5044668
:101180000D460026402D47D00EDC072D2BD006DC67
:10119000042D2FD0052D19D0062D61D11CE0082D6E
:1011A0002ED0202D5CD131E0B5F5806F46D006DC25
:1011B000B5F5807F36D0B5F5007F51D138E0B5F573
:1011C000803F47D0B5F5003F4AD13DE0A0680121FE
:1011D000FFF7CBFF064645E0A0684FF48071FFF7AC
:1011E000C4FF06463EE0A0684FF48031FFF7BDFF24
:1011F000064637E0E0680821FFF7B7FF064631E012
:10120000E0681021FFF7B1FF06462BE020690821B6
:10121000FFF7ABFF064625E020691021FFF7A5FF89
:1012200006461FE0A0690121FFF79FFF064619E06F
:10123000A0690221FFF799FF064613E0A069042187
:10124000FFF793FF06460DE060681021FFF78DFF62
:10125000064607E060680821FFF787FF064601E0C1
:10126000002600BF00BF304670BD402935D00EDCDF
:10127000072925D006DC042926D0052919D00629FE
:1012800043D119E0082922D020293ED122E0B1F52E
:10129000806F2FD006DCB1F5807F21D0B1F5007FC3
:1012A00033D122E0B1F5803F29D0B1F5003F2CD1F8
:1012B00028E00122826029E04FF48072826025E0FC
:1012C0004FF48032826021E00822C2601EE01022CA
:1012D000C2601BE00822026118E01022026115E0E2
:1012E000826922F00102826110E0826922F002022A
:1012F00082610BE0826922F00402826106E008222A
:10130000426003E01022426000E000BF00BF70476F
:1013100031490143314A1160704770B50021002303
:101320000F22C47804B32D4C246804F4E064C4F59F
:10133000E064210AC1F10403CA40447804FA03F1CD
:101340008478144021430901254C0678A15504787E
:1013500004F01F050124AC4005786D11AD0005F1C6
:10136000E025C5F8004109E0047804F01F050124D8
:10137000AC401C4D0678761145F8264070BD1A4ADF
:101380000A400243154B1B1F1A60704739B1134ABC
:10139000121D12680243114B1B1D1A6006E00F4A12
:1013A000121D126882430D4B1B1D1A6070470428E2
:1013B00008D14FF0E021096941F004014FF0E0222B
:1013C000116107E04FF0E021096921F004014FF0BD
:1013D000E0221161704700000000FA050CED00E00A
:1013E00000E400E080E100E080FFFF1F0CB500207A
:1013F000019000904748006840F4803045490860FB
:1014000000BF4448006800F4003000900198401C80
:101410000190009818B90198B0F5A06FF1D13D483E
:10142000006800F4003010B10120009001E00020BD
:1014300000900098012844D13748006840F010001F
:10144000354908600846006820F003000860084637
:10145000006840F0020008602E4840682D4948604E
:101460000846406848600846406840F4806048602C
:101470000846406820F47C1048600846406840F404
:10148000E81048600846006840F08070086000BFBF
:101490002048006800F000700028F9D01D4840681E
:1014A00020F003001B4948600846406840F00200F5
:1014B000486000BF1748406800F00C000828F9D1C8
:1014C00001E000BFFEE70CBD10B5FFF78FFF10BDB8
:1014D00010B51048006840F001000E490860084649
:1014E00040680E4908400B494860084600680C49AE
:1014F0000840084908600846006820F48020086019
:101500000846406820F4FE00486000208860FFF72D
:10151000DBFF10BD00100240002002400000FFF879
:10152000FFFFF6FE064C074D06E0E06840F00103C1
:1015300094E8070098471034AC42F6D3FEF7FCFD60
:10154000681500088815000802E008C8121F08C1C5
:10155000002AFAD170477047002001E001C1121F34
:10156000002AFBD170470000881500080000002009
:1015700014000000481500089C1500081400002005
:1015800004020000581500080000000001020304D6
:0C15900001020304060708090204060813
:0400000508000147A7
:00000001FF
